:020000020000FC
:1000000017C046C018951895189518959DC0189555
:100010001895189518951895189518951895189578
:10002000189518951895FE64DDF567B7BFE4FFF7DE
:1000300004E00EBF0FE50DBF04E001BB1EE325E0A9
:1000400091E080E932E04427B0E0A0E600E00D93C3
:1000500000E00D9300E00D9300E00D9300E00D93A0
:1000600000E00C930BEF01BB04E002BB0FE304BB09
:1000700001E007BB04E00BBD01EE0ABD0AE00EBDC6
:1000800000E109BF02E005BF00E40BBF7894FFCF99
:100090000BB70F7B0BBF61E004EF01506040E8F746
:1000A00030FD08C0829948C005B7036005BF3160C4
:1000B000442742C0829B40C005B70E7F05BF3E7FEC
:1000C000493088F5423000F532FF18C0523021F037
:1000D000503021F06AE00AC066E008C0219608812D
:1000E0002197043010F463E001C062E008810395B9
:1000F0000883061728F10027088322C031FD02C0BB
:1001000032601EC03D7F1CC032FFF8CF00E60C17E6
:1001100039F400E00D1721F43B7F91E080E910C035
:100120000A915A950DC03460D0E0C6E600270A93C4
:100130000A930A9153E004C00BB700640BBF1895F3
:100140000BB700640BBF00C032FF20C0019719F449
:1001500091E080E943950894111F1F732395263081
:1001600011F41EE320E00FE305BB0024B0E0A0E69D
:10017000A20FB01D0C915DD002BB251719F401E050
:1001800008BB02C0002708BB15BB1895019799F55D
:1001900091E080E94395B0E0A5E60C9103950C93BE
:1001A0000A3049F500270C930E9103950C93063005
:1001B00011F500270C930E9103950C930A30D9F496
:1001C00000270C930E9103950C930630A1F40027A1
:1001D0000C930E9103950C93043039F00A3059F4C6
:1001E00000270C930E91039506C00E91023019F46E
:1001F00000270D930C930894111F1F73239526302D
:1002000011F41EE320E00FE305BB233079F0213029
:1002100069F0002708BB0024B0E0A0E6A20FB01DE3
:100220000C9107D002BB31FD15BB189501E008BB4E
:10023000F2CFF0E0E6E20024E00FF01DC895002DBB
:0202400008951F
:00000001FF
